S016000055534152545F52656365697665722E73726563EB
S11300000C942A000C9434000C9434000C943400A6
S11300100C9434000C9434000C9434000C9434008C
S11300200C9434000C9434000C9434000C9434007C
S11300300C9434000C944E000C9434000C94340052
S11300400C9434000C9434000C9434000C9434005C
S11300500C94340011241FBECFE5D8E0DEBFCDBF21
S11300600E9475000C9481000C9400008CB185B33F
S1130070826085BB2FE38DE093E021508040904067
S1130080E1F700C0000015BA089583E389B910BCF4
S11300901BB880E98AB986EB80BD08951F920F9240
S11300A00FB60F9211242F933F934F935F936F9347
S11300B07F938F939F93AF93BF93EF93FF9385B3F6
S11300C0816085BB0E943600FF91EF91BF91AF9193
S11300D09F918F917F916F915F914F913F912F915C
S11300E00F900FBE0F901F90189583E084BB80E89B
S11300F081BB15BA82B3806882BB0E9445007894A4
S1090100FFCFF894FFCFCD
S9030000FC
