S014000055534152545F53656E6465722E73726563C1
S11300000C942A000C9434000C9434000C94610079
S11300100C9434000C9434000C9434000C9434008C
S11300200C9434000C9434000C9434000C9434007C
S11300300C9434000C9434000C9434000C9444005C
S11300400C9434000C9434000C9434000C9434005C
S11300500C94340011241FBECFE5D8E0DEBFCDBF21
S11300600E9488000C949A000C9400005D9BFECFC3
S113007081E68CB9089583E389B910BC1BB888E480
S11300808AB986EB80BD08951F920F920FB60F9226
S113009011242F938F939F9385B3816085BB2FE3A6
S11300A08DE093E0215080409040E1F700C00000D3
S11300B015BA9F918F912F910F900FBE0F901F90A3
S11300C018951F920F920FB60F9211242F933F93FE
S11300D04F935F936F937F938F939F93AF93BF934C
S11300E0EF93FF9385B3826085BB0E943600FF9136
S11300F0EF91BF91AF919F918F917F916F915F919C
S11301004F913F912F910F900FBE0F901F90189514
S113011083E084BB80E881BB15BA82B3806882BB6C
S11301200E943B008BB780628BBF84B7806484BF1E
S10B01307894FFCFF894FFCF8F
S9030000FC
