:100000000C942A000C943F000C943F000C943F0089
:100010000C943F000C943F000C943F000C943F0064
:100020000C943F000C943F000C943F000C943F0054
:100030000C943F000C943F000C943F000C943F0044
:100040000C9427040C943F000C943F000C943F0048
:100050000C943F0011241FBECFE5D8E0DEBFCDBF1A
:1000600010E0A0E6B0E0E6EFFCE002C005900D92E3
:10007000A836B107D9F70E9493040C9479060C9422
:100080000000672B09F0DFC0009721F48BB38E7F4F
:100090008BBB08958130910521F48BB38D7F8BBB91
:1000A00008958230910521F48BB38B7F8BBB08952B
:1000B0008330910521F48BB3877F8BBB0895843007
:1000C000910521F48BB38F7E8BBB0895853091050C
:1000D00021F48BB38F7D8BBB08958630910521F47D
:1000E0008BB38F7B8BBB08958730910521F48BB345
:1000F0008F778BBB08958A30910521F488B38E7F6A
:1001000088BB08958B30910521F488B38D7F88BB1F
:1001100008958C30910521F488B38B7F88BB0895B6
:100120008D30910521F488B3877F88BB08958E3088
:10013000910521F488B38F7E88BB08958F30910597
:1001400021F488B38F7D88BB08958031910521F417
:1001500088B38F7B88BB08958131910521F488B3E2
:100160008F7788BB08958431910521F485B38E7F04
:1001700085BB08958531910521F485B38D7F85BBBD
:1001800008958631910521F485B38B7F85BB089551
:100190008731910521F485B3877F85BB0895883128
:1001A000910521F485B38F7E85BB08958931910532
:1001B00021F485B38F7D85BB08958A31910521F4A3
:1001C00085B38F7B85BB08958B31910521F485B371
:1001D0008F7785BB08958E31910521F482B38E7F90
:1001E00082BB08958F31910521F482B38D7F82BB4C
:1001F00008958032910521F482B38B7F82BB0895EC
:100200008132910521F482B3877F82BB08958232C7
:10021000910521F482B38F7E82BB089583329105CC
:1002200021F482B38F7D82BB08958432910521F43D
:1002300082B38F7B82BB0895859709F0E1C082B3BA
:100240008F7782BB0895009721F48BB381608BBBBD
:1002500008958130910521F48BB382608BBB0895A2
:100260008230910521F48BB384608BBB0895833079
:10027000910521F48BB388608BBB08958430910580
:1002800021F48BB380618BBB08958530910521F4F7
:100290008BB380628BBB08958630910521F48BB3BC
:1002A00080648BBB08958730910521F48BB38068FF
:1002B0008BBB08958A30910521F488B3816088BB97
:1002C00008958B30910521F488B3826088BB08952E
:1002D0008C30910521F488B3846088BB08958D30FB
:1002E000910521F488B3886088BB08958E3091050C
:1002F00021F488B3806188BB08958F30910521F483
:1003000088B3806288BB08958031910521F488B359
:10031000806488BB08958131910521F488B3806899
:1003200088BB08958431910521F485B3816085BB34
:1003300008958531910521F485B3826085BB0895C8
:100340008631910521F485B3846085BB089587319A
:10035000910521F485B3886085BB089588319105A6
:1003600021F485B3806185BB08958931910521F41D
:1003700085B3806285BB08958A31910521F485B3E8
:10038000806485BB08958B31910521F485B3806825
:1003900085BB08958E31910521F482B3816082BBC3
:1003A00008958F31910521F482B3826082BB089554
:1003B0008032910521F482B3846082BB089581323A
:1003C000910521F482B3886082BB08958232910541
:1003D00021F482B3806182BB08958332910521F4B8
:1003E00082B3806282BB08958432910521F482B386
:1003F000806482BB0895859719F482B3806882BBBC
:100400000895CF93C82F80FF07C061E070E082E2BB
:1004100090E00E94410006C060E070E082E290E05F
:100420000E944100C1FF07C061E070E083E290E0FC
:100430000E94410006C060E070E083E290E00E940C
:100440004100C2FF07C061E070E084E290E00E94DA
:10045000410006C060E070E084E290E00E9441004C
:10046000C3FF07C061E070E085E290E00E944100B8
:1004700006C060E070E085E290E00E944100CF910C
:100480000895CF93C82F60E070E08AE190E00E9469
:1004900041008C2F0E94010261E070E08BE190E04E
:1004A0000E94410089EF90E00197F1F700C0000041
:1004B00060E070E08BE190E00E94410089EF90E005
:1004C0000197F1F700C00000CF91089580E00E94ED
:1004D000410281E00E9441020895CF93813099F456
:1004E00080E8860F90E095958795959587959595E9
:1004F000879595958795C62FCF700E9441028C2FC6
:100500000E94410214C0823091F480EC860F90E08A
:1005100095958795959587959595879595958795C3
:10052000C62FCF700E9441028C2F0E944102CF91B2
:10053000089580E00E94010287E893E10197F1F7B6
:1005400000C0000083E00E94410281EE94E0019728
:10055000F1F700C0000083E00E9441028DEB9AE0B9
:100560000197F1F700C0000083E00E94410282E0A1
:100570000E94410282E00E94410288E00E94410202
:1005800080E00E9441028CE00E94410280E00E94D3
:10059000410286E00E9441020895CF93DF93D82F55
:1005A000DF70C82FC07F61E070E08AE190E00E94B8
:1005B00041008C2F90E09595879595958795959519
:1005C0008795959587950E94010261E070E08BE127
:1005D00090E00E94410089EF90E00197F1F700C0A0
:1005E000000060E070E08BE190E00E94410089EF44
:1005F00090E00197F1F700C000008D2F0E940102EA
:1006000061E070E08BE190E00E94410089EF90E0B2
:100610000197F1F700C0000060E070E08BE190E02E
:100620000E94410089EF90E00197F1F700C00000BF
:10063000DF91CF9108950F931F93CF93DF938C0198
:10064000C0E0D0E0F801EC0FFD1F8081882321F08D
:100650000E94CD022196F6CFDF91CF911F910F918D
:1006600008958617970714F0862F972F08954F92B5
:100670005F926F927F928F929F92AF92BF92CF9232
:10068000DF92EF92FF920F931F93CF93DF93CDB73B
:10069000DEB764970FB6F894DEBF0FBECDBF4B0137
:1006A0005C01CA01122F64E070E00E94310320E077
:1006B00030E0EE24E394F12C2817390774F4A701F5
:1006C000440F551FEE0CFF1CEE0CFF1CEE0CFF1C24
:1006D000E40EF51E2F5F3F4FEFCFC501B4010E941E
:1006E00010052B013C016B01072E000C880B990BA8
:1006F0000E9448059B01AC01C501B4010E94A304FE
:100700004B015C01B701FF0C880B990B0E94480557
:10071000A50194010E94D4050E9410059B0155205B
:1007200014F0772364F4CC24DD24C418D5082227E0
:100730003327261B370BEE24E394F12C02C0E12C67
:10074000F12CC901E0E0F0E0009781F06AE070E090
:100750000E944106A1E0B0E0AC0FBD1FAE0FBF1F6D
:10076000805D8C93862F972F3196EECF232B49F403
:10077000A1E0B0E0AC0FBD1FAE0FBF1F80E38C93B4
:1007800031969F012F5F3F4F81E090E08C0F9D1FBE
:10079000E80FF91F8EE28083C601009789F06AE0B6
:1007A00070E00E944106E1E0F0E0EC0FFD1FE20F77
:1007B000F31F805D8083862F972F2F5F3F4FEDCFF4
:1007C000CD2851F4E1E0F0E0EC0FFD1FE20FF31F44
:1007D00080E380832F5F3F4FEA94EF2841F4E1E00C
:1007E000F0E0EC0FFD1FE20FF31F8DE28083CE01DE
:1007F00001960E946906602F812F0E946D02CE0132
:1008000001960E941B0364960FB6F894DEBF0FBEDC
:10081000CDBFDF91CF911F910F91FF90EF90DF90AF
:10082000CF90BF90AF909F908F907F906F905F9090
:100830004F900895CF93DF93EC01862F642F0E9491
:100840006D02CE010E941B03DF91CF9108951F928C
:100850000F920FB60F921124CF92DF92EF92FF9278
:100860000F931F932F933F934F935F936F937F93B8
:100870008F939F93AF93BF93EF93FF9384B165B131
:10088000637070E0762F6627682B072E000C880BAC
:10089000990B0E94480520E030E042E553E40E94B5
:1008A000D40520E030E040E85AE30E94D40520E07F
:1008B00030E04CE552E40E94A3046B017C010E94ED
:1008C000660240E050E061E070E080E690E00E9467
:1008D0001A0400E010E022E030E043E050E0C701FD
:1008E000B6010E9437032FE38DE093E02150804052
:1008F0009040E1F700C00000FF91EF91BF91AF91F0
:100900009F918F917F916F915F914F913F912F9127
:100910001F910F91FF90EF90DF90CF900F900FBE3F
:100920000F901F90189580EC84BB80EF81BB0E94D4
:1009300099020E94660217B888E886B9789486B151
:10094000806486B9FCCF5058BB27AA270E94BB04FD
:100950000C949A050E948C0538F00E94930520F0B3
:1009600039F49F3F19F426F40C9489050EF4E095B0
:10097000E7FB0C948305E92F0E94AB0558F3BA17E7
:10098000620773078407950720F079F4A6F50C94A5
:10099000CD050EF4E0950B2EBA2FA02D0B01B90159
:1009A00090010C01CA01A0011124FF27591B99F0E5
:1009B000593F50F4503E68F11A16F040A22F232FF1
:1009C000342F4427585FF3CF469537952795A79541
:1009D000F0405395C9F77EF41F16BA0B620B730BE8
:1009E000840BBAF09150A1F0FF0FBB1F661F771F59
:1009F000881FC2F70EC0BA0F621F731F841F48F40E
:100A0000879577956795B795F7959E3F08F0B0CF96
:100A10009395880F08F09927EE0F9795879508957D
:100A20000E9417056894B1110C94CE0508950E9498
:100A3000B30588F09F5798F0B92F9927B751B0F0B8
:100A4000E1F0660F771F881F991F1AF0BA95C9F752
:100A500014C0B13091F00E94CD05B1E008950C941E
:100A6000CD05672F782F8827B85F39F0B93FCCF3D1
:100A7000869577956795B395D9F73EF490958095CF
:100A8000709561957F4F8F4F9F4F0895E89409C0EF
:100A900097FB3EF490958095709561957F4F8F4FB1
:100AA0009F4F9923A9F0F92F96E9BB279395F695C7
:100AB000879577956795B795F111F8CFFAF4BB0F45
:100AC00011F460FF1BC06F5F7F4F8F4F9F4F16C0A9
:100AD000882311F096E911C0772321F09EE8872F33
:100AE000762F05C0662371F096E8862F70E060E0EF
:100AF0002AF09A95660F771F881FDAF7880F969568
:100B0000879597F9089597F99F6780E870E060E00E
:100B100008959FEF80EC089500240A941616170696
:100B200018060906089500240A94121613061406DE
:100B300005060895092E0394000C11F4882352F041
:100B4000BB0F40F4BF2B11F460FF04C06F5F7F4FF9
:100B50008F4F9F4F089557FD9058440F551F59F0E0
:100B60005F3F71F04795880F97FB991F61F09F3F9A
:100B700079F087950895121613061406551FF2CFC3
:100B80004695F1DF08C0161617061806991FF1CF13
:100B900086957105610508940895E894BB2766273A
:100BA0007727CB0197F908950E94E7050C949A05E1
:100BB0000E948C0538F00E94930520F0952311F0D7
:100BC0000C9483050C94890511240C94CE050E9485
:100BD000AB0570F3959FC1F3950F50E0551F629FD1
:100BE000F001729FBB27F00DB11D639FAA27F00D86
:100BF000B11DAA1F649F6627B00DA11D661F829FAD
:100C00002227B00DA11D621F739FB00DA11D621F91
:100C1000839FA00D611D221F749F3327A00D611DAE
:100C2000231F849F600D211D822F762F6A2F112490
:100C30009F5750409AF0F1F088234AF0EE0FFF1FC3
:100C4000BB1F661F771F881F91505040A9F79E3F1A
:100C5000510580F00C9483050C94CE055F3FE4F3BE
:100C6000983ED4F3869577956795B795F795E79570
:100C70009F5FC1F7FE2B880F911D9695879597F979
:100C8000089597FB072E16F4009407D077FD09D03E
:100C90000E94550607FC05D03EF4909581959F4F24
:100CA0000895709561957F4F0895AA1BBB1B51E174
:100CB00007C0AA1FBB1FA617B70710F0A61BB70BCC
:100CC000881F991F5A95A9F780959095BC01CD0171
:100CD0000895DC01FC01672F71917723E1F73297CA
:100CE00004C07C916D9370836291AE17BF07C8F307
:060CF0000895F894FFCF07
:080CF60056616C75653A0000BF
:00000001FF
