:100000000C942A000C9411040C9447000C944700A3
:100010000C9447000C9447000C9447000C94470044
:100020000C9447000C9447000C9447000C94470034
:100030000C9447000C9447000C9447000C94470024
:100040000C9447000C9447000C9447000C94470014
:100050000C94470011241FBECFE5D8E0DEBFCDBF12
:1000600010E0A0E6B0E0E6E1F3E102C005900D92F9
:10007000A83BB107D9F721E0A8EBB0E001C01D9281
:10008000A03CB207E1F70E94FC040C9489090C948F
:100090000000672B09F0DFC0009721F48BB38E7F3F
:1000A0008BBB08958130910521F48BB38D7F8BBB81
:1000B00008958230910521F48BB38B7F8BBB08951B
:1000C0008330910521F48BB3877F8BBB08958430F7
:1000D000910521F48BB38F7E8BBB089585309105FC
:1000E00021F48BB38F7D8BBB08958630910521F46D
:1000F0008BB38F7B8BBB08958730910521F48BB335
:100100008F778BBB08958A30910521F488B38E7F59
:1001100088BB08958B30910521F488B38D7F88BB0F
:1001200008958C30910521F488B38B7F88BB0895A6
:100130008D30910521F488B3877F88BB08958E3078
:10014000910521F488B38F7E88BB08958F30910587
:1001500021F488B38F7D88BB08958031910521F407
:1001600088B38F7B88BB08958131910521F488B3D2
:100170008F7788BB08958431910521F485B38E7FF4
:1001800085BB08958531910521F485B38D7F85BBAD
:1001900008958631910521F485B38B7F85BB089541
:1001A0008731910521F485B3877F85BB0895883118
:1001B000910521F485B38F7E85BB08958931910522
:1001C00021F485B38F7D85BB08958A31910521F493
:1001D00085B38F7B85BB08958B31910521F485B361
:1001E0008F7785BB08958E31910521F482B38E7F80
:1001F00082BB08958F31910521F482B38D7F82BB3C
:1002000008958032910521F482B38B7F82BB0895DB
:100210008132910521F482B3877F82BB08958232B7
:10022000910521F482B38F7E82BB089583329105BC
:1002300021F482B38F7D82BB08958432910521F42D
:1002400082B38F7B82BB0895859709F0E1C082B3AA
:100250008F7782BB0895009721F48BB381608BBBAD
:1002600008958130910521F48BB382608BBB089592
:100270008230910521F48BB384608BBB0895833069
:10028000910521F48BB388608BBB08958430910570
:1002900021F48BB380618BBB08958530910521F4E7
:1002A0008BB380628BBB08958630910521F48BB3AC
:1002B00080648BBB08958730910521F48BB38068EF
:1002C0008BBB08958A30910521F488B3816088BB87
:1002D00008958B30910521F488B3826088BB08951E
:1002E0008C30910521F488B3846088BB08958D30EB
:1002F000910521F488B3886088BB08958E309105FC
:1003000021F488B3806188BB08958F30910521F472
:1003100088B3806288BB08958031910521F488B349
:10032000806488BB08958131910521F488B3806889
:1003300088BB08958431910521F485B3816085BB24
:1003400008958531910521F485B3826085BB0895B8
:100350008631910521F485B3846085BB089587318A
:10036000910521F485B3886085BB08958831910596
:1003700021F485B3806185BB08958931910521F40D
:1003800085B3806285BB08958A31910521F485B3D8
:10039000806485BB08958B31910521F485B3806815
:1003A00085BB08958E31910521F482B3816082BBB3
:1003B00008958F31910521F482B3826082BB089544
:1003C0008032910521F482B3846082BB089581322A
:1003D000910521F482B3886082BB08958232910531
:1003E00021F482B3806182BB08958332910521F4A8
:1003F00082B3806282BB08958432910521F482B376
:10040000806482BB0895859719F482B3806882BBAB
:100410000895CF93C82F80FF07C061E070E086E1A8
:1004200090E00E94490006C060E070E086E190E044
:100430000E944900C1FF07C061E070E087E190E0E1
:100440000E94490006C060E070E087E190E00E94F1
:100450004900C2FF07C061E070E088E190E00E94BF
:10046000490006C060E070E088E190E00E94490029
:10047000C3FF07C061E070E089E190E00E9449009D
:1004800006C060E070E089E190E00E944900CF91F1
:100490000895CF93C82F60E070E084E190E00E945F
:1004A00049008C2F0E94090261E070E085E190E034
:1004B0000E94490089EF90E00197F1F700C0000029
:1004C00060E070E085E190E00E94490089EF90E0F3
:1004D0000197F1F700C00000CF910895CF938130CC
:1004E00099F480E8860F90E0959587959595879586
:1004F0009595879595958795C62FCF700E9449024F
:100500008C2F0E94490214C0823091F480EC860F37
:1005100090E095958795959587959595879595956F
:100520008795C62FCF700E9449028C2F0E944902E6
:10053000CF91089580E00E94090287E893E1019736
:10054000F1F700C0000083E00E94490281EE94E0D0
:100550000197F1F700C0000083E00E9449028DEB93
:100560009AE00197F1F700C0000083E00E94490281
:1005700082E00E94490282E00E94490288E00E94D3
:10058000490280E00E9449028CE00E94490280E01A
:100590000E94490286E00E9449020895CF93DF93AA
:1005A000D82FDF70C82FC07F61E070E084E190E059
:1005B0000E9449008C2F90E0959587959595879599
:1005C00095958795959587950E94090261E070E061
:1005D00085E190E00E94490089EF90E00197F1F7F2
:1005E00000C0000060E070E085E190E00E944900FA
:1005F00089EF90E00197F1F700C000008D2F0E9475
:10060000090261E070E085E190E00E94490089EF15
:1006100090E00197F1F700C0000060E070E085E134
:1006200090E00E94490089EF90E00197F1F700C047
:100630000000DF91CF9108950F931F93CF93DF9325
:100640008C01C0E0D0E0F801EC0FFD1F8081882311
:1006500021F00E94CE022196F6CFDF91CF911F911B
:100660000F91089510BC8CE089B982E08BB988E1C4
:100670008AB986E880BD08953F924F925F926F924B
:100680007F928F929F92AF92BF92CF92DF92EF9222
:10069000FF920F931F93CF93DF9300D0CDB7DEB7B8
:1006A0008C016B017A01922EADB6BEB6642F8C2DF3
:1006B0000E946E02911004C0C8010E941C0376C003
:1006C00020E130E02E193F09F80101900020E9F700
:1006D00031974F01801A910AB4012815390524F485
:1006E00042E0C416D10424F0C8010E941C035EC07D
:1006F0006DB67EB6C9010196EDB7FEB7E81BF90BE2
:100700000FB6F894FEBF0FBEEDBF4DB75EB74F5F9B
:100710005F4F5A834983821A930AC4010196E81BEA
:10072000F90B0FB6F894FEBF0FBEEDBF8DB79EB7A5
:1007300001962C01DC0180E090E08217930754F4CD
:10074000F801E80FF91F3080FA01E80FF91F308235
:100750000196F3CFC90140E050E08617970764F493
:10076000F801E80FF91F3080FD01E40FF51F30821A
:1007700001964F5F5F4FF1CFE981FA81E20FF31FDE
:100780001082F201E80DF91D108289819A810E9480
:100790001C036E2D81E08C0D0E946E02C2010E942E
:1007A0001C030FB6F8947EBE0FBE6DBE0FB6F89454
:1007B000BEBE0FBEADBE0F900F90DF91CF911F91C7
:1007C0000F91FF90EF90DF90CF90BF90AF909F90F0
:1007D0008F907F906F905F904F903F90089502C0F0
:1007E000959587956A95E2F7817099270895CF933B
:1007F000C82F8BB165E070E090E00E94EF03892B79
:10080000C1F3CCB980E090E0CF9108958BB167E05F
:1008100070E090E00E94EF03892BC1F38CB190E06F
:1008200008951F920F920FB60F9211242F933F93AA
:100830004F935F936F937F938F939F93AF93BF93E8
:10084000CF93DF93EF93FF9382B367E070E090E084
:100850000E94EF03892B21F48AB780628ABF75C09A
:100860001092B5011092B40188B38D7F88BB0E94AD
:1008700006049093B3018093B2018091B2019091EC
:10088000B3019F938F9388E690E09F938F930E948C
:1008900067050E94060480936700809167001F929D
:1008A0008F9385E790E09F938F930E9467050E9446
:1008B000060480936600809166001F928F9382E801
:1008C00090E09F938F930E9467058DB79EB70C961B
:1008D0000FB6F8949EBF0FBE8DBFC0E0D0E08091F0
:1008E000B2019091B301C817D907ACF40E94060475
:1008F000FE01E854FF4F808380811F928F9381E92E
:1009000090E09F938F930E94670521960F900F9020
:100910000F900F90E4CF88EB90E09F938F9385E941
:1009200090E09F938F930E94670581E090E0909301
:10093000B5018093B40188B3826088BB8AB78062B6
:100940008ABF0F900F900F900F90FF91EF91DF9162
:10095000CF91BF91AF919F918F917F916F915F9157
:100960004F913F912F910F900FBE0F901F901895B0
:1009700084B7806884BF84B7806884BF81B380688F
:1009800081BB8FEF8ABB8FE384BB84B3806C84BB55
:1009900017BA87B3826087BB82B38F7782BB1BBADB
:1009A00085B38F7785BB85B38F7B85BB1092B501EF
:1009B0001092B40188B38D7F88BB0E949A020E9476
:1009C000320360E070E087EF93E00E941C05909393
:1009D000B9018093B8018BB780648BBF85B7836002
:1009E00085BF78942FE38DE093E0215080409040C4
:1009F000E1F700C0000008950E94B80421E040E043
:100A000050E061E070E08AE990E00E943C0381E000
:100A100090E09093B5018093B40188B3826088BB65
:100A200082B3806882BB8DEA90E09F938F930E948F
:100A300067050F900F90FFCF0F931F93CF93DF9316
:100A4000009731F46115710519F480E090E03AC027
:100A50008B01EC016EE070E081E090E00E945E07A7
:100A6000FC01892B91F380E883830115110571F056
:100A70001387028781E883838091B6019091B70143
:100A8000892B21F4F093B701E093B6012097C9F0C8
:100A9000D187C0878381826083838091B8019091E0
:100AA000B901892B71F4F093B901E093B8018091F9
:100AB000BA019091BB01892B21F4F093BB01E09323
:100AC000BA01CF01DF91CF911F910F910895A0E05E
:100AD000B0E0EDE6F5E00C946209AE014B5F5F4FCC
:100AE000FA0161917191AF018091B8019091B901C2
:100AF0000E947D05E2E00C947E09ABE0B0E0E3E803
:100B0000F5E00C9452096C017B018A01FC0117820B
:100B10001682838181FFCCC1CE0101963C01F60192
:100B20009381F70193FD859193FF81917F01882344
:100B300009F4BAC1853239F493FD859193FF81910F
:100B40007F01853229F4B60190E00E94B808E7CF12
:100B5000912C212C312CFFE1F315D8F08B3279F058
:100B600038F4803279F08332A1F4232D20611DC046
:100B70008D3261F0803369F4232D216016C0832DFE
:100B80008260382EE32DE4603E2E2AC0F32DF860FB
:100B90001DC037FC2DC020ED280F2A3040F08E32CA
:100BA000B9F436FC81C1232D2064322E19C036FEE3
:100BB00006C08AE0989E200D1124922E11C0EAE012
:100BC0002E9E200D1124222EF32DF0623F2E08C000
:100BD0008C3621F4832D8068382E02C0883641F48B
:100BE000F70193FD859193FF81917F018111B3CF2F
:100BF000982F9F7D9554933028F40C5F1F4F9FE3EF
:100C000099830DC0833631F0833771F0833509F055
:100C100059C021C0F801808189830E5F1F4F88244D
:100C20008394912C530113C02801F2E04F0E511C04
:100C3000F801A080B18036FE03C0692D70E002C0CB
:100C40006FEF7FEFC5010E94AD084C018201F32DCB
:100C5000FF773F2E16C0280122E0420E511CF801FA
:100C6000A080B18036FE03C0692D70E002C06FEF36
:100C70007FEFC5010E949B084C01F32DF0683F2EC9
:100C8000820133FC1BC0822D90E088169906B0F4D7
:100C9000B60180E290E00E94B8082A94F4CFF501F2
:100CA00037FC859137FE81915F01B60190E00E948B
:100CB000B80821102A9421E0821A91088114910425
:100CC00071F7E8C0843611F0893641F5F80137FE36
:100CD00007C060817181828193810C5F1F4F08C0C2
:100CE00060817181072E000C880B990B0E5F1F4FDE
:100CF000F32DFF763F2E97FF09C090958095709554
:100D000061957F4F8F4F9F4FF0683F2E2AE030E074
:100D1000A3010E94F408882E861845C0853731F457
:100D2000232D2F7EB22E2AE030E025C0932D997F0F
:100D3000B92E8F36C1F018F4883579F0B5C08037F8
:100D400019F0883721F0B0C0E92FE061BE2EB4FE63
:100D50000DC0FB2DF460BF2E09C034FE0AC0292F40
:100D60002660B22E06C028E030E005C020E130E069
:100D700002C020E132E0F801B7FE07C06081718156
:100D8000828193810C5F1F4F06C06081718180E07A
:100D900090E00E5F1F4FA3010E94F408882E861872
:100DA000FB2DFF773F2E36FE0DC0232D2E7FA22E6A
:100DB000891458F434FE0BC032FC09C0832D8E7E9A
:100DC000A82E05C0B82CA32C03C0B82C01C0B92C88
:100DD000A4FE0FC0FE01E80DF11D8081803321F4D7
:100DE0009A2D997EA92E09C0A2FE06C0B394B39491
:100DF00004C08A2D867809F0B394A3FC11C0A0FE2C
:100E000006C0B21488F4280C922C9B180EC0B214A1
:100E100060F4B60180E290E00E94B808B394F7CF86
:100E2000B21418F42B1802C0982C212CA4FE10C068
:100E3000B60180E390E00E94B808A2FE17C0A1FCB2
:100E400003C088E790E002C088E590E0B6010CC0DE
:100E50008A2D867859F0A1FE02C08BE201C080E2A3
:100E6000A7FC8DE2B60190E00E94B808891438F41E
:100E7000B60180E390E00E94B8089A94F7CF8A9474
:100E8000F301E80DF11D8081B60190E00E94B808E1
:100E90008110F5CF222009F442CEB60180E290E025
:100EA0000E94B8082A94F6CFF6018681978102C085
:100EB0008FEF9FEF2B96E2E10C946E090F931F9337
:100EC000CF93DF93869F8001879F100D969F100D13
:100ED0001124C8010E947A07EC01009729F0A801AB
:100EE00060E070E00E94A608CE01DF91CF911F91D3
:100EF0000F9108950F931F93CF93DF938230910545
:100F000010F482E090E0E091BE01F091BF0120E09A
:100F100030E0A0E0B0E0309719F1408151810281CA
:100F2000138148175907C8F08417950769F410977B
:100F300031F012960C93129713961C9327C00093CE
:100F4000BE011093BF0122C02115310519F04217CF
:100F5000530718F49A01BD01EF01DF01F801DBCF5F
:100F600021153105F9F0281B390B2430310580F4A7
:100F70008A819B816115710521F0FB019383828336
:100F800004C09093BF018093BE01FE01329644C01D
:100F9000FE01E20FF31F81939193225031093983AF
:100FA00028833AC02091BC013091BD01232B41F42C
:100FB00020916200309163003093BD012093BC0109
:100FC00020916000309161002115310541F42DB769
:100FD0003EB74091640050916500241B350BE091B1
:100FE000BC01F091BD01E217F307A0F42E1B3F0BEB
:100FF0002817390778F0AC014E5F5F4F241735078B
:1010000048F04E0F5F1F5093BD014093BC01819388
:10101000919302C0E0E0F0E0CF01DF91CF911F910A
:101020000F910895CF93DF93009709F481C0FC01DD
:10103000329713821282A091BE01B091BF01109726
:1010400081F420813181820F931F2091BC01309166
:10105000BD012817390751F5F093BD01E093BC019C
:1010600067C0ED0120E030E0CE17DF0740F44A8191
:101070005B819E0141155105F1F0EA01F5CFD38363
:10108000C28340815181840F951FC817D90759F435
:1010900088819981840F951F0296918380838A812C
:1010A0009B81938382832115310529F4F093BF013D
:1010B000E093BE013DC0E901FB83EA834991599168
:1010C000C40FD51FEC17FD0761F480819181840F57
:1010D000951F0296E90199838883828193819B837E
:1010E0008A83E0E0F0E012968D919C91139700972F
:1010F00019F0FD01DC01F7CF8D919C9111979D01B5
:101100002E5F3F4F820F931F2091BC013091BD0194
:101110002817390769F4309729F41092BF0110920B
:10112000BE0102C013821282B093BD01A093BC0124
:10113000DF91CF910895FC0105906150704001103E
:10114000D8F7809590958E0F9F1F0895DC0101C000
:101150006D9341505040E0F70895FC01615070409C
:1011600001900110D8F7809590958E0F9F1F0895DC
:101170000F931F93CF93DF93FB01238121FD03C0C6
:101180008FEF9FEF2CC022FF16C04681578124812C
:1011900035814217530744F4A081B1819D012F5F2F
:1011A0003F4F318320838C93268137812F5F3F4FC0
:1011B0003783268314C08B01EC01FB010084F18589
:1011C000E02D0995892BE1F6D80116968D919C9119
:1011D0001797019617969C938E931697CE01DF91E1
:1011E000CF911F910F910895FA01AA27283051F14C
:1011F000203181F1E8946F936E7F6E5F7F4F8F4F48
:101200009F4FAF4FB1E03ED0B4E03CD0670F781FA6
:10121000891F9A1FA11D680F791F8A1F911DA11D8B
:101220006A0F711D811D911DA11D20D009F46894C4
:101230003F912AE0269F11243019305D3193DEF66C
:10124000CF010895462F4770405D4193B3E00FD022
:10125000C9F7F6CF462F4F70405D4A3318F0495D0D
:1012600031FD4052419302D0A9F7EACFB4E0A695F0
:101270009795879577956795BA95C9F70097610512
:10128000710508959B01AC010A2E06945795479568
:1012900037952795BA95C9F7620F731F841F951F5D
:1012A000A01D08952F923F924F925F926F927F926E
:1012B0008F929F92AF92BF92CF92DF92EF92FF9266
:1012C0000F931F93CF93DF93CDB7DEB7CA1BDB0B12
:1012D0000FB6F894DEBF0FBECDBF09942A883988B7
:1012E00048885F846E847D848C849B84AA84B984BE
:1012F000C884DF80EE80FD800C811B81AA81B981CA
:10130000CE0FD11D0FB6F894DEBF0FBECDBFED01DD
:061310000895F894FFCFE0
:101316000000C0012000FFFF4C656E6774683A202C
:1013260025640A0D0053656E6465723A2025630ACA
:101336000D0052656365697665723A2025630A0D6C
:101346000025630A0025730A0D00416C6C206F6B43
:10135600617920696E206D6F746F727300446562E7
:0813660075676765720A0D004E
:00000001FF
