:100000000C942A000C9447000C9447000C94470071
:100010000C9447000C9447000C9447000C94470044
:100020000C9447000C9447000C9447000C94470034
:100030000C944A040C9447000C9447000C9447001D
:100040000C9447000C9447000C9447000C94470014
:100050000C94470011241FBECFE5D8E0DEBFCDBF12
:1000600010E0A0E6B0E0E6E6F5E102C005900D92F2
:10007000AC3EB107D9F721E0ACEEB0E001C01D9273
:10008000A036B207E1F70E942C060C94B10A0C943A
:100090000000672B09F0DFC0009721F48BB38E7F3F
:1000A0008BBB08958130910521F48BB38D7F8BBB81
:1000B00008958230910521F48BB38B7F8BBB08951B
:1000C0008330910521F48BB3877F8BBB08958430F7
:1000D000910521F48BB38F7E8BBB089585309105FC
:1000E00021F48BB38F7D8BBB08958630910521F46D
:1000F0008BB38F7B8BBB08958730910521F48BB335
:100100008F778BBB08958A30910521F488B38E7F59
:1001100088BB08958B30910521F488B38D7F88BB0F
:1001200008958C30910521F488B38B7F88BB0895A6
:100130008D30910521F488B3877F88BB08958E3078
:10014000910521F488B38F7E88BB08958F30910587
:1001500021F488B38F7D88BB08958031910521F407
:1001600088B38F7B88BB08958131910521F488B3D2
:100170008F7788BB08958431910521F485B38E7FF4
:1001800085BB08958531910521F485B38D7F85BBAD
:1001900008958631910521F485B38B7F85BB089541
:1001A0008731910521F485B3877F85BB0895883118
:1001B000910521F485B38F7E85BB08958931910522
:1001C00021F485B38F7D85BB08958A31910521F493
:1001D00085B38F7B85BB08958B31910521F485B361
:1001E0008F7785BB08958E31910521F482B38E7F80
:1001F00082BB08958F31910521F482B38D7F82BB3C
:1002000008958032910521F482B38B7F82BB0895DB
:100210008132910521F482B3877F82BB08958232B7
:10022000910521F482B38F7E82BB089583329105BC
:1002300021F482B38F7D82BB08958432910521F42D
:1002400082B38F7B82BB0895859709F0E1C082B3AA
:100250008F7782BB0895009721F48BB381608BBBAD
:1002600008958130910521F48BB382608BBB089592
:100270008230910521F48BB384608BBB0895833069
:10028000910521F48BB388608BBB08958430910570
:1002900021F48BB380618BBB08958530910521F4E7
:1002A0008BB380628BBB08958630910521F48BB3AC
:1002B00080648BBB08958730910521F48BB38068EF
:1002C0008BBB08958A30910521F488B3816088BB87
:1002D00008958B30910521F488B3826088BB08951E
:1002E0008C30910521F488B3846088BB08958D30EB
:1002F000910521F488B3886088BB08958E309105FC
:1003000021F488B3806188BB08958F30910521F472
:1003100088B3806288BB08958031910521F488B349
:10032000806488BB08958131910521F488B3806889
:1003300088BB08958431910521F485B3816085BB24
:1003400008958531910521F485B3826085BB0895B8
:100350008631910521F485B3846085BB089587318A
:10036000910521F485B3886085BB08958831910596
:1003700021F485B3806185BB08958931910521F40D
:1003800085B3806285BB08958A31910521F485B3D8
:10039000806485BB08958B31910521F485B3806815
:1003A00085BB08958E31910521F482B3816082BBB3
:1003B00008958F31910521F482B3826082BB089544
:1003C0008032910521F482B3846082BB089581322A
:1003D000910521F482B3886082BB08958232910531
:1003E00021F482B3806182BB08958332910521F4A8
:1003F00082B3806282BB08958432910521F482B376
:10040000806482BB0895859719F482B3806882BBAB
:100410000895CF93C82F80FF07C061E070E086E1A8
:1004200090E00E94490006C060E070E086E190E044
:100430000E944900C1FF07C061E070E087E190E0E1
:100440000E94490006C060E070E087E190E00E94F1
:100450004900C2FF07C061E070E088E190E00E94BF
:10046000490006C060E070E088E190E00E94490029
:10047000C3FF07C061E070E089E190E00E9449009D
:1004800006C060E070E089E190E00E944900CF91F1
:100490000895CF93C82F60E070E084E190E00E945F
:1004A00049008C2F0E94090261E070E085E190E034
:1004B0000E94490089EF90E00197F1F700C0000029
:1004C00060E070E085E190E00E94490089EF90E0F3
:1004D0000197F1F700C00000CF910895CF938130CC
:1004E00099F480E8860F90E0959587959595879586
:1004F0009595879595958795C62FCF700E9449024F
:100500008C2F0E94490214C0823091F480EC860F37
:1005100090E095958795959587959595879595956F
:100520008795C62FCF700E9449028C2F0E944902E6
:10053000CF91089580E00E94090287E893E1019736
:10054000F1F700C0000083E00E94490281EE94E0D0
:100550000197F1F700C0000083E00E9449028DEB93
:100560009AE00197F1F700C0000083E00E94490281
:1005700082E00E94490282E00E94490288E00E94D3
:10058000490280E00E9449028CE00E94490280E01A
:100590000E94490286E00E9449020895CF93DF93AA
:1005A000D82FDF70C82FC07F61E070E084E190E059
:1005B0000E9449008C2F90E0959587959595879599
:1005C00095958795959587950E94090261E070E061
:1005D00085E190E00E94490089EF90E00197F1F7F2
:1005E00000C0000060E070E085E190E00E944900FA
:1005F00089EF90E00197F1F700C000008D2F0E9475
:10060000090261E070E085E190E00E94490089EF15
:1006100090E00197F1F700C0000060E070E085E134
:1006200090E00E94490089EF90E00197F1F700C047
:100630000000DF91CF9108950F931F93CF93DF9325
:100640008C01C0E0D0E0F801EC0FFD1F8081882311
:1006500021F00E94CE022196F6CFDF91CF911F911B
:100660000F910895863441F5611106C08BB3826005
:100670008BBB20E030E004C08BB38D7F8BBBF9CF08
:1006800028333105ACF48BB381608BBB89EF90E0EC
:100690000197F1F700C000008BB38E7F8BBB89EF11
:1006A00090E00197F1F700C000002F5F3F4FE8CFC7
:1006B0008BB38D7F8BBB0895823541F5611106C0E8
:1006C0008BB388608BBB20E030E004C08BB3877FA6
:1006D0008BBBF9CF28333105ACF48BB384608BBB73
:1006E00089EF90E00197F1F700C000008BB38B7F9A
:1006F0008BBB89EF90E00197F1F700C000002F5FFE
:100700003F4FE8CF8BB3877F8BBB0895823441F591
:10071000611106C08BB380628BBB20E030E004C067
:100720008BB38F7D8BBBF9CF28333105ACF48BB302
:1007300080618BBB89EF90E00197F1F700C000006A
:100740008BB38F7E8BBB89EF90E00197F1F700C0F0
:1007500000002F5F3F4FE8CF8BB38F7D8BBB089599
:100760008C3441F5611106C08BB380688BBB20E0EF
:1007700030E004C08BB38F778BBBF9CF28333105C2
:10078000ACF48BB380648BBB89EF90E00197F1F7F9
:1007900000C000008BB38F7B8BBB89EF90E001978B
:1007A000F1F700C000002F5F3F4FE8CF8BB38F778A
:1007B0008BBB0895843439F5611106C085B380641C
:1007C00085BB20E030E004C085B38F7B85BBF9CFCB
:1007D00028333105ACF485B3806885BB89EF90E0A0
:1007E0000197F1F700C0000085B38F7785BB89EFD3
:1007F00090E00197F1F700C000002F5F3F4FE8CF76
:1008000085B38F7B85BB0895EF92FF920F931F9363
:10081000CF93DF937C01FC0101900020E9F7319731
:100820008F01081B190BC0E0D0E0C017D10724F5D9
:10083000F701EC0FFD1F8081980121503109C2178B
:10084000D30751F0FE013196EE0DFF1D90819732D6
:1008500029F4219661E003C060E001C060E00E94DD
:1008600032032FEB87E299E0215080409040E1F77E
:1008700000C000002196D9CFDF91CF911F910F9139
:10088000FF90EF90089587B3806487BB85EC8DB9A6
:100890001EB808951F920F920FB60F9211242F9336
:1008A0003F934F935F936F937F938F939F93AF93F8
:1008B000BF93EF93FF938091540190915501892B41
:1008C00019F588B3877F88BB8FB190E0909353016F
:1008D0008093520180915201909153019F938F9385
:1008E00086E690E09F938F930E948F06809154013B
:1008F00090915501019690935501809354010F906A
:100900000F900F900F907FC08091540190915501EE
:10091000019709F03FC088B3877F88BB8FB190E013
:100920009093510180935001809150019091510119
:10093000892B49F483E790E09F938F930E948F0661
:100940000F900F901DC0809150019091510101971F
:1009500049F484E890E09F938F930E948F060F9054
:100960000F900EC08091500190915101029741F477
:1009700083E990E09F938F930E948F060F900F90D2
:100980008091540190915501019690935501809367
:10099000540139C088B3877F88BBE0915401F0913E
:1009A00055018FB1E651FF4F8083809154019091A2
:1009B0005501019690935501809354018091520105
:1009C0009091530102962091540130915501821764
:1009D0009307C9F4E0915401F09155018CEE90E039
:1009E000E451FF4F10829F938F9384EA90E09F938E
:1009F0008F930E948F0610925501109254010F9010
:100A00000F900F900F908EB18FB9FF91EF91BF9122
:100A1000AF919F918F917F916F915F914F913F9196
:100A20002F910F900FBE0F901F90189510BC83E36D
:100A300089B91BB888E18AB986EB80BD08953F92D9
:100A40004F925F926F927F928F929F92AF92BF92DE
:100A5000CF92DF92EF92FF920F931F93CF93DF938A
:100A600000D0CDB7DEB78C016B017A01922EADB606
:100A7000BEB6642F8C2D0E946E02911004C0C80176
:100A80000E941C0376C020E130E02E193F09F801D6
:100A900001900020E9F731974F01801A910AB401C3
:100AA0002815390524F442E0C416D10424F0C80105
:100AB0000E941C035EC06DB67EB6C9010196EDB7FB
:100AC000FEB7E81BF90B0FB6F894FEBF0FBEEDBFE3
:100AD0004DB75EB74F5F5F4F5A834983821A930ABF
:100AE000C4010196E81BF90B0FB6F894FEBF0FBEC8
:100AF000EDBF8DB79EB701962C01DC0180E090E040
:100B00008217930754F4F801E80FF91F3080FA01B7
:100B1000E80FF91F30820196F3CFC90140E050E0A1
:100B20008617970764F4F801E80FF91F3080FD017C
:100B3000E40FF51F308201964F5F5F4FF1CFE981DF
:100B4000FA81E20FF31F1082F201E80DF91D108205
:100B500089819A810E941C036E2D81E08C0D0E9478
:100B60006E02C2010E941C030FB6F8947EBE0FBE37
:100B70006DBE0FB6F894BEBE0FBEADBE0F900F9007
:100B8000DF91CF911F910F91FF90EF90DF90CF9069
:100B9000BF90AF909F908F907F906F905F904F909D
:100BA0003F90089502C0959587956A95E2F7817008
:100BB00099270895CF93C82F8BB165E070E090E03E
:100BC0000E94D205892BC1F3CCB980E090E0CF918F
:100BD00008958BB167E070E090E00E94D205892B08
:100BE000C1F38CB190E00895CF93DF9384B7806810
:100BF00084BF84B7806884BF81B3806881BB17BA23
:100C000087B3886087BB8FEF8ABB8FE384BB84B3D5
:100C1000806C84BB0E949A0282B3806882BB88B3D6
:100C2000877F88BB0E94160560E070E08AED95E042
:100C30000E944406C6E5D1E09B838A8369EE75E095
:100C400080E090E00E944406998388830E944304D8
:100C50007894DF91CF9108950E94F40583EB90E0A2
:100C60009F938F930E948F0621E040E050E061E067
:100C700070E088EC90E00E941F058BED90E00E94F0
:100C800004040F900F90FFCF0F931F93CF93DF9328
:100C9000009731F46115710519F480E090E03AC0D5
:100CA0008B01EC016EE070E081E090E00E9486082C
:100CB000FC01892B91F380E883830115110571F004
:100CC0001387028781E883838091560190915701B1
:100CD000892B21F4F0935701E09356012097C9F036
:100CE000D187C087838182608383809158019091EE
:100CF0005901892B71F4F0935901E09358018091C7
:100D00005A0190915B01892B21F4F0935B01E093F0
:100D10005A01CF01DF91CF911F910F910895A0E06B
:100D2000B0E0E5E9F6E00C948A0AAE014B5F5F4F54
:100D3000FA0161917191AF0180915801909159012F
:100D40000E94A506E2E00C94A60AABE0B0E0EBEA54
:100D5000F6E00C947A0A6C017B018A01FC0117828F
:100D60001682838181FFCCC1CE0101963C01F60140
:100D70009381F70193FD859193FF81917F018823F2
:100D800009F4BAC1853239F493FD859193FF8191BD
:100D90007F01853229F4B60190E00E94E009E7CF97
:100DA000912C212C312CFFE1F315D8F08B3279F006
:100DB00038F4803279F08332A1F4232D20611DC0F4
:100DC0008D3261F0803369F4232D216016C0832DAC
:100DD0008260382EE32DE4603E2E2AC0F32DF860A9
:100DE0001DC037FC2DC020ED280F2A3040F08E3278
:100DF000B9F436FC81C1232D2064322E19C036FE91
:100E000006C08AE0989E200D1124922E11C0EAE0BF
:100E10002E9E200D1124222EF32DF0623F2E08C0AD
:100E20008C3621F4832D8068382E02C0883641F438
:100E3000F70193FD859193FF81917F018111B3CFDC
:100E4000982F9F7D9554933028F40C5F1F4F9FE39C
:100E500099830DC0833631F0833771F0833509F003
:100E600059C021C0F801808189830E5F1F4F8824FB
:100E70008394912C530113C02801F2E04F0E511CB2
:100E8000F801A080B18036FE03C0692D70E002C079
:100E90006FEF7FEFC5010E94D5094C018201F32D50
:100EA000FF773F2E16C0280122E0420E511CF801A8
:100EB000A080B18036FE03C0692D70E002C06FEFE4
:100EC0007FEFC5010E94C3094C01F32DF0683F2E4E
:100ED000820133FC1BC0822D90E088169906B0F485
:100EE000B60180E290E00E94E0092A94F4CFF50177
:100EF00037FC859137FE81915F01B60190E00E9439
:100F0000E00921102A9421E0821A910881149104A9
:100F100071F7E8C0843611F0893641F5F80137FEE3
:100F200007C060817181828193810C5F1F4F08C06F
:100F300060817181072E000C880B990B0E5F1F4F8B
:100F4000F32DFF763F2E97FF09C090958095709501
:100F500061957F4F8F4F9F4FF0683F2E2AE030E022
:100F6000A3010E941C0A882E861845C0853731F4DB
:100F7000232D2F7EB22E2AE030E025C0932D997FBD
:100F8000B92E8F36C1F018F4883579F0B5C08037A6
:100F900019F0883721F0B0C0E92FE061BE2EB4FE11
:100FA0000DC0FB2DF460BF2E09C034FE0AC0292FEE
:100FB0002660B22E06C028E030E005C020E130E017
:100FC00002C020E132E0F801B7FE07C06081718104
:100FD000828193810C5F1F4F06C06081718180E028
:100FE00090E00E5F1F4FA3010E941C0A882E8618F6
:100FF000FB2DFF773F2E36FE0DC0232D2E7FA22E18
:10100000891458F434FE0BC032FC09C0832D8E7E47
:10101000A82E05C0B82CA32C03C0B82C01C0B92C35
:10102000A4FE0FC0FE01E80DF11D8081803321F484
:101030009A2D997EA92E09C0A2FE06C0B394B3943E
:1010400004C08A2D867809F0B394A3FC11C0A0FED9
:1010500006C0B21488F4280C922C9B180EC0B2144F
:1010600060F4B60180E290E00E94E009B394F7CF0B
:10107000B21418F42B1802C0982C212CA4FE10C016
:10108000B60180E390E00E94E009A2FE17C0A1FC37
:1010900003C088E790E002C088E590E0B6010CC08C
:1010A0008A2D867859F0A1FE02C08BE201C080E251
:1010B000A7FC8DE2B60190E00E94E009891438F4A3
:1010C000B60180E390E00E94E0099A94F7CF8A94F9
:1010D000F301E80DF11D8081B60190E00E94E00966
:1010E0008110F5CF222009F442CEB60180E290E0D3
:1010F0000E94E0092A94F6CFF6018681978102C00A
:101100008FEF9FEF2B96E2E10C94960A0F931F93BB
:10111000CF93DF93869F8001879F100D969F100DC0
:101120001124C8010E94A208EC01009729F0A8012F
:1011300060E070E00E94CE09CE01DF91CF911F9157
:101140000F9108950F931F93CF93DF9382309105F2
:1011500010F482E090E0E0915E01F0915F0120E008
:1011600030E0A0E0B0E0309719F140815181028178
:10117000138148175907C8F08417950769F4109729
:1011800031F012960C93129713961C9327C000937C
:101190005E0110935F0122C02115310519F042173D
:1011A000530718F49A01BD01EF01DF01F801DBCF0D
:1011B00021153105F9F0281B390B2430310580F455
:1011C0008A819B816115710521F0FB0193838283E4
:1011D00004C090935F0180935E01FE01329644C08B
:1011E000FE01E20FF31F819391932250310939835D
:1011F00028833AC020915C0130915D01232B41F49A
:10120000209162003091630030935D0120935C0176
:1012100020916000309161002115310541F42DB716
:101220003EB74091640050916500241B350BE0915E
:101230005C01F0915D01E217F307A0F42E1B3F0B58
:101240002817390778F0AC014E5F5F4F2417350738
:1012500048F04E0F5F1F50935D0140935C018193F6
:10126000919302C0E0E0F0E0CF01DF91CF911F91B8
:101270000F910895CF93DF93009709F481C0FC018B
:10128000329713821282A0915E01B0915F01109794
:1012900081F420813181820F931F20915C01309174
:1012A0005D012817390751F5F0935D01E0935C016A
:1012B00067C0ED0120E030E0CE17DF0740F44A813F
:1012C0005B819E0141155105F1F0EA01F5CFD38311
:1012D000C28340815181840F951FC817D90759F4E3
:1012E00088819981840F951F0296918380838A81DA
:1012F0009B81938382832115310529F4F0935F014B
:10130000E0935E013DC0E901FB83EA834991599175
:10131000C40FD51FEC17FD0761F480819181840F04
:10132000951F0296E90199838883828193819B832B
:101330008A83E0E0F0E012968D919C9113970097DC
:1013400019F0FD01DC01F7CF8D919C9111979D0162
:101350002E5F3F4F820F931F20915C0130915D0102
:101360002817390769F4309729F410925F01109219
:101370005E0102C013821282B0935D01A0935C01F2
:10138000DF91CF910895FC010590615070400110EC
:10139000D8F7809590958E0F9F1F0895DC0101C0AE
:1013A0006D9341505040E0F70895FC01615070404A
:1013B00001900110D8F7809590958E0F9F1F08958A
:1013C0000F931F93CF93DF93FB01238121FD03C074
:1013D0008FEF9FEF2CC022FF16C0468157812481DA
:1013E00035814217530744F4A081B1819D012F5FDD
:1013F0003F4F318320838C93268137812F5F3F4F6E
:101400003783268314C08B01EC01FB010084F18536
:10141000E02D0995892BE1F6D80116968D919C91C6
:101420001797019617969C938E931697CE01DF918E
:10143000CF911F910F910895FA01AA27283051F1F9
:10144000203181F1E8946F936E7F6E5F7F4F8F4FF5
:101450009F4FAF4FB1E03ED0B4E03CD0670F781F54
:10146000891F9A1FA11D680F791F8A1F911DA11D39
:101470006A0F711D811D911DA11D20D009F4689472
:101480003F912AE0269F11243019305D3193DEF61A
:10149000CF010895462F4770405D4193B3E00FD0D0
:1014A000C9F7F6CF462F4F70405D4A3318F0495DBB
:1014B00031FD4052419302D0A9F7EACFB4E0A6959E
:1014C0009795879577956795BA95C9F700976105C0
:1014D000710508959B01AC010A2E06945795479516
:1014E00037952795BA95C9F7620F731F841F951F0B
:1014F000A01D08952F923F924F925F926F927F921C
:101500008F929F92AF92BF92CF92DF92EF92FF9213
:101510000F931F93CF93DF93CDB7DEB7CA1BDB0BBF
:101520000FB6F894DEBF0FBECDBF09942A88398864
:1015300048885F846E847D848C849B84AA84B9846B
:10154000C884DF80EE80FD800C811B81AA81B98177
:10155000CE0FD11D0FB6F894DEBF0FBECDBFED018B
:061560000895F894FFCF8E
:101566000000600120004C656E6774683A202564AF
:101576000A0D0053656E6465723A204D6173746599
:10158600720A0D0053656E6465723A2049704F7099
:101596000A0D0053656E6465723A204D6F746F7262
:1015A600730A0D0052656365697665643A20257392
:1015B6000A0D00616C6C206F6B617920696E206D7D
:1015C6006F746F72730A0D00416C6C206F6B6179DA
:1015D60020696E206D6F746F7273004652424C44E0
:0C15E6004627522742274C2744270000CC
:00000001FF
