:100000000C942A000C9432030C9447000C94650461
:100010000C9447000C9447000C9447000C94470044
:100020000C9447000C9447000C9447000C94470034
:100030000C9447000C9447000C9447000C94470024
:100040000C9447000C9447000C9447000C94470014
:100050000C94470011241FBECFE5D8E0DEBFCDBF12
:1000600010E0A0E6B0E0ECE1FBE002C005900D92EC
:10007000A43CB107D9F720E0A4ECB0E001C01D9288
:10008000A63CB207E1F70E9474050C948C050C9411
:100090000000672B09F0DFC0009721F48BB38E7F3F
:1000A0008BBB08958130910521F48BB38D7F8BBB81
:1000B00008958230910521F48BB38B7F8BBB08951B
:1000C0008330910521F48BB3877F8BBB08958430F7
:1000D000910521F48BB38F7E8BBB089585309105FC
:1000E00021F48BB38F7D8BBB08958630910521F46D
:1000F0008BB38F7B8BBB08958730910521F48BB335
:100100008F778BBB08958A30910521F488B38E7F59
:1001100088BB08958B30910521F488B38D7F88BB0F
:1001200008958C30910521F488B38B7F88BB0895A6
:100130008D30910521F488B3877F88BB08958E3078
:10014000910521F488B38F7E88BB08958F30910587
:1001500021F488B38F7D88BB08958031910521F407
:1001600088B38F7B88BB08958131910521F488B3D2
:100170008F7788BB08958431910521F485B38E7FF4
:1001800085BB08958531910521F485B38D7F85BBAD
:1001900008958631910521F485B38B7F85BB089541
:1001A0008731910521F485B3877F85BB0895883118
:1001B000910521F485B38F7E85BB08958931910522
:1001C00021F485B38F7D85BB08958A31910521F493
:1001D00085B38F7B85BB08958B31910521F485B361
:1001E0008F7785BB08958E31910521F482B38E7F80
:1001F00082BB08958F31910521F482B38D7F82BB3C
:1002000008958032910521F482B38B7F82BB0895DB
:100210008132910521F482B3877F82BB08958232B7
:10022000910521F482B38F7E82BB089583329105BC
:1002300021F482B38F7D82BB08958432910521F42D
:1002400082B38F7B82BB0895859709F0E1C082B3AA
:100250008F7782BB0895009721F48BB381608BBBAD
:1002600008958130910521F48BB382608BBB089592
:100270008230910521F48BB384608BBB0895833069
:10028000910521F48BB388608BBB08958430910570
:1002900021F48BB380618BBB08958530910521F4E7
:1002A0008BB380628BBB08958630910521F48BB3AC
:1002B00080648BBB08958730910521F48BB38068EF
:1002C0008BBB08958A30910521F488B3816088BB87
:1002D00008958B30910521F488B3826088BB08951E
:1002E0008C30910521F488B3846088BB08958D30EB
:1002F000910521F488B3886088BB08958E309105FC
:1003000021F488B3806188BB08958F30910521F472
:1003100088B3806288BB08958031910521F488B349
:10032000806488BB08958131910521F488B3806889
:1003300088BB08958431910521F485B3816085BB24
:1003400008958531910521F485B3826085BB0895B8
:100350008631910521F485B3846085BB089587318A
:10036000910521F485B3886085BB08958831910596
:1003700021F485B3806185BB08958931910521F40D
:1003800085B3806285BB08958A31910521F485B3D8
:10039000806485BB08958B31910521F485B3806815
:1003A00085BB08958E31910521F482B3816082BBB3
:1003B00008958F31910521F482B3826082BB089544
:1003C0008032910521F482B3846082BB089581322A
:1003D000910521F482B3886082BB08958232910531
:1003E00021F482B3806182BB08958332910521F4A8
:1003F00082B3806282BB08958432910521F482B376
:10040000806482BB0895859719F482B3806882BBAB
:100410000895CF93C82F80FF07C061E070E086E1A8
:1004200090E00E94490006C060E070E086E190E044
:100430000E944900C1FF07C061E070E087E190E0E1
:100440000E94490006C060E070E087E190E00E94F1
:100450004900C2FF07C061E070E088E190E00E94BF
:10046000490006C060E070E088E190E00E94490029
:10047000C3FF07C061E070E089E190E00E9449009D
:1004800006C060E070E089E190E00E944900CF91F1
:100490000895CF93C82F60E070E084E190E00E945F
:1004A00049008C2F0E94090261E070E085E190E034
:1004B0000E94490089EF90E00197F1F700C0000029
:1004C00060E070E085E190E00E94490089EF90E0F3
:1004D0000197F1F700C00000CF910895CF938130CC
:1004E00099F480E8860F90E0959587959595879586
:1004F0009595879595958795C62FCF700E9449024F
:100500008C2F0E94490214C0823091F480EC860F37
:1005100090E095958795959587959595879595956F
:100520008795C62FCF700E9449028C2F0E944902E6
:10053000CF91089580E00E94090287E893E1019736
:10054000F1F700C0000083E00E94490281EE94E0D0
:100550000197F1F700C0000083E00E9449028DEB93
:100560009AE00197F1F700C0000083E00E94490281
:1005700082E00E94490282E00E94490288E00E94D3
:10058000490280E00E9449028CE00E94490280E01A
:100590000E94490286E00E9449020895CF93DF93AA
:1005A000D82FDF70C82FC07F61E070E084E190E059
:1005B0000E9449008C2F90E0959587959595879599
:1005C00095958795959587950E94090261E070E061
:1005D00085E190E00E94490089EF90E00197F1F7F2
:1005E00000C0000060E070E085E190E00E944900FA
:1005F00089EF90E00197F1F700C000008D2F0E9475
:10060000090261E070E085E190E00E94490089EF15
:1006100090E00197F1F700C0000060E070E085E134
:1006200090E00E94490089EF90E00197F1F700C047
:100630000000DF91CF9108950F931F93CF93DF9325
:100640008C01C0E0D0E0F801EC0FFD1F8081882311
:1006500021F00E94CE022196F6CFDF91CF911F911B
:100660000F9108951F920F920FB60F9211240F90C1
:100670000FBE0F901F90189510BC8CE089B982E0D6
:100680008BB988E18AB986E880BD08953F924F9280
:100690005F926F927F928F929F92AF92BF92CF9212
:1006A000DF92EF92FF920F931F93CF93DF9300D0CF
:1006B000CDB7DEB78C016B017A01922EADB6BEB616
:1006C000642F8C2D0E946E02911004C0C8010E94FC
:1006D0001C0376C020E130E02E193F09F80101909B
:1006E0000020E9F731974F01801A910AB4012815CB
:1006F000390524F442E0C416D10424F0C8010E9454
:100700001C035EC06DB67EB6C9010196EDB7FEB79B
:10071000E81BF90B0FB6F894FEBF0FBEEDBF4DB747
:100720005EB74F5F5F4F5A834983821A930AC401B1
:100730000196E81BF90B0FB6F894FEBF0FBEEDBF94
:100740008DB79EB701962C01DC0180E090E0821706
:10075000930754F4F801E80FF91F3080FA01E80F0D
:10076000F91F30820196F3CFC90140E050E08617AF
:10077000970764F4F801E80FF91F3080FD01E40FDA
:10078000F51F308201964F5F5F4FF1CFE981FA810B
:10079000E20FF31F1082F201E80DF91D108289812A
:1007A0009A810E941C036E2D81E08C0D0E946E02C6
:1007B000C2010E941C030FB6F8947EBE0FBE6DBE30
:1007C0000FB6F894BEBE0FBEADBE0F900F90DF9176
:1007D000CF911F910F91FF90EF90DF90CF90BF903E
:1007E000AF909F908F907F906F905F904F903F90D1
:1007F000089502C0959587956A95E2F781709927CB
:100800000895CF93C82F8BB165E070E090E00E940F
:10081000F903892BC1F3CCB9CF910895EF92FF92E0
:100820000F931F93CF93DF938C018091C40090911D
:10083000C500019751F486B360E070E090E00E943B
:10084000F903019721F480E003C081E001C081E059
:100850008111EBCF1092C5001092C40088B38D7F38
:1008600088BB88B3886088BBF80101900020E9F755
:100870003197CF01801B910B7C010E94010489E418
:100880000E9401048DE40E940104C0E0D0E0CE1576
:10089000DF0544F4F801EC0FFD1F80810E94010484
:1008A0002196F5CF81E090E09093C5008093C4003D
:1008B00088B3826088BB88B3877F88BBDF91CF9184
:1008C0001F910F91FF90EF9008951F920F920FB616
:1008D0000F9211242F933F934F935F936F937F93C6
:1008E0008F939F93AF93BF93CF93DF93EF93FF9338
:1008F00085B367E070E090E00E94F903892B21F452
:100900008AB780628ABFA6C0C9B3D0E060E070E059
:10091000CE010E94F9030197A1F485B3806485BBE1
:1009200080E690E00E940E042FE986E891E02150D5
:1009300080409040E1F700C0000085B38F7B85BB0D
:1009400086C061E070E0CE010E94F9030197A1F436
:1009500081E790E00E940E0482B3886082BB2FE999
:1009600086E891E0215080409040E1F700C000000F
:1009700082B3877F82BB6BC062E070E0CE010E94D1
:10098000F9030197A1F48FE790E00E940E0482B36F
:10099000806182BB2FE986E891E021508040904041
:1009A000E1F700C0000082B38F7E82BB50C063E0DD
:1009B00070E0CE010E94F9030197A1F48CE890E069
:1009C0000E940E0482B3806282BB2FE986E891E028
:1009D000215080409040E1F700C0000082B38F7D3D
:1009E00082BB35C064E070E0CE010E94F90301973C
:1009F000A1F48BE990E00E940E0482B3806482BB74
:100A00002FE986E891E0215080409040E1F700C056
:100A1000000082B38F7B82BB1AC065E070E0CE011C
:100A20000E94F903019799F487EA90E00E940E046E
:100A300082B3806882BB2FE986E891E02150804034
:100A40009040E1F700C0000082B38F7782BB8AB785
:100A500080628ABFFF91EF91DF91CF91BF91AF91FB
:100A60009F918F917F916F915F914F913F912F91C6
:100A70000F900FBE0F901F90189584B7806884BFA9
:100A800084B7806884BF1ABA8FE384BB84B3806C58
:100A900084BB88EF81BB17BA87B38A6087BB85B3F5
:100AA0008F7785BB1092C5001092C40088B38D7FEC
:100AB00088BB88B3877F88BB0E949A020E943C0350
:100AC0008BB780668BBF84B7806484BF85B7836033
:100AD00085BF78942FE38DE093E0215080409040D3
:100AE000E1F700C0000008950E943D0521E040E0CC
:100AF00050E061E070E084EB90E00E94460381E00A
:100B000090E09093C5008093C40088B3826088BB56
:0C0B100085B3806885BBFFCFF894FFCF51
:100B1C00494E505554204E45574120534855525537
:100B2C000043415054555245204B4F5242450052C0
:100B3C004554414B45204B4F524245005343524183
:100B4C004D424C45204B4F52424500534F4C56455D
:100B5C00204B4F5242450043414E43454C204B4F96
:100B6C0052424500416C6C206F6B617920696E209C
:040B7C00692F70006D
:00000001FF
