S01000005465726D696E616C2E73726563D8
S11300000C942A000C9447000C9447000C947E0036
S11300100C9447000C9447000C9447000C94470040
S11300200C9447000C9447000C9447000C94470030
S11300300C9447000C9447000C9447000C94470020
S11300400C9447000C9447000C9447000C94470010
S11300500C94470011241FBECFE5D8E0DEBFCDBF0E
S113006010E0A0E6B0E0EAECFAE002C005900D92E0
S1130070A837B107D9F720E0A8E7B0E001C01D9286
S1130080A438B207E1F70E9495000C9463050C9420
S1130090000021E030E0062E02C0220F331F0A9434
S11300A0E2F78223932302C0959587956A95E2F738
S11300B0817099270895CF93C82F8BB165E070E0C4
S11300C090E00E944900892BC1F3CCB980E090E014
S11300D0CF9108958BB167E070E090E00E944900F1
S11300E0892BC1F38CB190E0089510BC83E389B9E6
S11300F01BB888E18AB986EB80BD08951F920F92E0
S11301000FB60F9211248F939F9380917800909152
S11301107900019690937900809378009F918F9154
S11301200F900FBE0F901F9018958FEF84BB85BB67
S113013080EC81BB82B3806882BB8BB780628BBF4B
S113014084B7806484BF84B7806884BF84B78068C0
S113015084BF78940E94750060E070E08BE590E0C5
S11301600E94F600CAE7D0E09B838A836AE670E0C7
S113017080E090E00E94F6009983888384E690E012
S1130180909379008093780086E690E09F938F9314
S11301900E9441010F900F90809178009091790016
S11301A09C012150310930937900209378009F936A
S11301B08F9383E790E09F938F930E9441018091F6
S11301C07800909179000F900F900F900F909923E1
S11301D034F484E690E0909379008093780087EA81
S11301E091E60197F1F700C00000D6CF0F931F935B
S11301F0CF93DF93009731F46115710519F480E012
S113020090E03AC08B01EC016EE070E081E090E098
S11302100E943803FC01892B91F380E88383011544
S1130220110571F01387028781E8838380917A0036
S113023090917B00892B21F4F0937B00E0937A006A
S11302402097C9F0D187C08783818260838380919E
S11302507C0090917D00892B71F4F0937D00E093F4
S11302607C0080917E0090917F00892B21F4F09393
S11302707F00E0937E00CF01DF91CF911F910F911A
S11302800895A0E0B0E0E7E4F1E00C943C05AE0191
S11302904B5F5F4FFA0161917191AF0180917C00D6
S11302A090917D000E945701E2E00C945805ABE068
S11302B0B0E0EDE5F1E00C942C056C017B018A01C2
S11302C0FC0117821682838181FFCCC1CE01019685
S11302D03C01F6019381F70193FD859193FF819190
S11302E07F01882309F4BAC1853239F493FD8591DD
S11302F093FF81917F01853229F4B60190E00E9439
S11303009204E7CF912C212C312CFFE1F315D8F086
S11303108B3279F038F4803279F08332A1F4232DD2
S113032020611DC08D3261F0803369F4232D21607A
S113033016C0832D8260382EE32DE4603E2E2AC041
S1130340F32DF8601DC037FC2DC020ED280F2A3096
S113035040F08E32B9F436FC81C1232D2064322E54
S113036019C036FE06C08AE0989E200D1124922EF4
S113037011C0EAE02E9E200D1124222EF32DF062EE
S11303803F2E08C08C3621F4832D8068382E02C09D
S1130390883641F4F70193FD859193FF81917F01A4
S11303A08111B3CF982F9F7D9554933028F40C5F1F
S11303B01F4F9FE399830DC0833631F0833771F06B
S11303C0833509F059C021C0F801808189830E5F0B
S11303D01F4F88248394912C530113C02801F2E009
S11303E04F0E511CF801A080B18036FE03C0692D68
S11303F070E002C06FEF7FEFC5010E9487044C01DB
S11304008201F32DFF773F2E16C0280122E0420E11
S1130410511CF801A080B18036FE03C0692D70E044
S113042002C06FEF7FEFC5010E9475044C01F32DEC
S1130430F0683F2E820133FC1BC0822D90E08816A9
S11304409906B0F4B60180E290E00E9492042A94E6
S1130450F4CFF50137FC859137FE81915F01B60138
S113046090E00E94920421102A9421E0821A9108BB
S11304708114910471F7E8C0843611F0893641F58E
S1130480F80137FE07C060817181828193810C5F1E
S11304901F4F08C060817181072E000C880B990BD7
S11304A00E5F1F4FF32DFF763F2E97FF09C09095E7
S11304B08095709561957F4F8F4F9F4FF0683F2EC9
S11304C02AE030E0A3010E94CE04882E861845C09D
S11304D0853731F4232D2F7EB22E2AE030E025C05B
S11304E0932D997FB92E8F36C1F018F4883579F0A1
S11304F0B5C0803719F0883721F0B0C0E92FE0612A
S1130500BE2EB4FE0DC0FB2DF460BF2E09C034FE18
S11305100AC0292F2660B22E06C028E030E005C0AC
S113052020E130E002C020E132E0F801B7FE07C06C
S113053060817181828193810C5F1F4F06C060814D
S1130540718180E090E00E5F1F4FA3010E94CE04F2
S1130550882E8618FB2DFF773F2E36FE0DC0232DE7
S11305602E7FA22E891458F434FE0BC032FC09C02D
S1130570832D8E7EA82E05C0B82CA32C03C0B82CC6
S113058001C0B92CA4FE0FC0FE01E80DF11D80814D
S1130590803321F49A2D997EA92E09C0A2FE06C0AB
S11305A0B394B39404C08A2D867809F0B394A3FC61
S11305B011C0A0FE06C0B21488F4280C922C9B181B
S11305C00EC0B21460F4B60180E290E00E9492047E
S11305D0B394F7CFB21418F42B1802C0982C212C22
S11305E0A4FE10C0B60180E390E00E949204A2FE33
S11305F017C0A1FC03C088E790E002C088E590E042
S1130600B6010CC08A2D867859F0A1FE02C08BE297
S113061001C080E2A7FC8DE2B60190E00E94920442
S1130620891438F4B60180E390E00E9492049A940D
S1130630F7CF8A94F301E80DF11D8081B60190E0B3
S11306400E9492048110F5CF222009F442CEB60113
S113065080E290E00E9492042A94F6CFF60186810B
S1130660978102C08FEF9FEF2B96E2E10C9448052F
S11306700F931F93CF93DF93869F8001879F100D65
S1130680969F100D1124C8010E945403EC01009799
S113069029F0A80160E070E00E948004CE01DF919F
S11306A0CF911F910F9108950F931F93CF93DF93D1
S11306B08230910510F482E090E0E0918200F091A4
S11306C0830020E030E0A0E0B0E0309719F14081F1
S11306D051810281138148175907C8F0841795077F
S11306E069F4109731F012960C93129713961C9399
S11306F027C0009382001093830022C02115310586
S113070019F04217530718F49A01BD01EF01DF01F4
S1130710F801DBCF21153105F9F0281B390B243002
S1130720310580F48A819B816115710521F0FB01FB
S11307309383828304C09093830080938200FE019C
S1130740329644C0FE01E20FF31F8193919322502D
S11307503109398328833AC0209180003091810087
S1130760232B41F420916200309163003093810087
S113077020938000209160003091610021153105A3
S113078041F42DB73EB74091640050916500241B9D
S1130790350BE0918000F0918100E217F307A0F49B
S11307A02E1B3F0B2817390778F0AC014E5F5F4FC3
S11307B02417350748F04E0F5F1F50938100409374
S11307C080008193919302C0E0E0F0E0CF01DF91DB
S11307D0CF911F910F910895CF93DF93009709F460
S11307E081C0FC01329713821282A0918200B091E1
S11307F08300109781F420813181820F931F20910F
S11308008000309181002817390751F5F093810059
S1130810E093800067C0ED0120E030E0CE17DF07F1
S113082040F44A815B819E0141155105F1F0EA01D2
S1130830F5CFD383C28340815181840F951FC8179C
S1130840D90759F488819981840F951F0296918361
S113085080838A819B81938382832115310529F4C6
S1130860F0938300E09382003DC0E901FB83EA83B7
S113087049915991C40FD51FEC17FD0761F480818C
S11308809181840F951F0296E9019983888382815F
S113089093819B838A83E0E0F0E012968D919C9192
S11308A01397009719F0FD01DC01F7CF8D919C910E
S11308B011979D012E5F3F4F820F931F209180005F
S11308C0309181002817390769F4309729F4109280
S11308D083001092820002C013821282B0938100BE
S11308E0A0938000DF91CF910895FC0105906150A1
S11308F070400110D8F7809590958E0F9F1F089532
S1130900DC0101C06D9341505040E0F70895FC01B3
S11309106150704001900110D8F7809590958E0F2A
S11309209F1F08950F931F93CF93DF93FB012381A0
S113093021FD03C08FEF9FEF2CC022FF16C046811C
S11309405781248135814217530744F4A081B18132
S11309509D012F5F3F4F318320838C932681378104
S11309602F5F3F4F3783268314C08B01EC01FB01BB
S11309700084F185E02D0995892BE1F6D8011696BE
S11309808D919C911797019617969C938E93169729
S1130990CE01DF91CF911F910F910895FA01AA27FB
S11309A0283051F1203181F1E8946F936E7F6E5FAE
S11309B07F4F8F4F9F4FAF4FB1E03ED0B4E03CD05C
S11309C0670F781F891F9A1FA11D680F791F8A1F3F
S11309D0911DA11D6A0F711D811D911DA11D20D0A6
S11309E009F468943F912AE0269F11243019305D60
S11309F03193DEF6CF010895462F4770405D419351
S1130A00B3E00FD0C9F7F6CF462F4F70405D4A339D
S1130A1018F0495D31FD4052419302D0A9F7EACF65
S1130A20B4E0A6959795879577956795BA95C9F794
S1130A3000976105710508959B01AC010A2E069487
S1130A405795479537952795BA95C9F7620F731F40
S1130A50841F951FA01D08952F923F924F925F927D
S1130A606F927F928F929F92AF92BF92CF92DF92BA
S1130A70EF92FF920F931F93CF93DF93CDB7DEB71F
S1130A80CA1BDB0B0FB6F894DEBF0FBECDBF0994B3
S1130A902A88398848885F846E847D848C849B840A
S1130AA0AA84B984C884DF80EE80FD800C811B8118
S1130AB0AA81B981CE0FD11D0FB6F894DEBF0FBE47
S10D0AC0CDBFED010895F894FFCFB7
S1130ACA000084002000436F756E74696E673A20D3
S10B0ADA0A0D0025640A0D0059
S9030000FC
