S0140000636F6C6F725F73656E736F722E73726563F8
S11300000C942A000C9447000C9447000C9447006D
S11300100C9447000C9447000C9447000C94470040
S11300200C9447000C9447000C9447000C94470030
S11300300C9447000C9447000C9447000C94470020
S11300400C9447000C9447000C9447000C94470010
S11300500C94470011241FBECFE5D8E0DEBFCDBF0E
S113006010E0A0E6B0E0ECECFEE002C005900D92DA
S1130070A237B107D9F720E0A2E7B0E001C01D9292
S1130080A237B207E1F70E941D030C9464070C9495
S11300900000672B09F0DFC0009721F48BB38E7F3B
S11300A08BBB08958130910521F48BB38D7F8BBB7D
S11300B008958230910521F48BB38B7F8BBB089517
S11300C08330910521F48BB3877F8BBB08958430F3
S11300D0910521F48BB38F7E8BBB089585309105F8
S11300E021F48BB38F7D8BBB08958630910521F469
S11300F08BB38F7B8BBB08958730910521F48BB331
S11301008F778BBB08958A30910521F488B38E7F55
S113011088BB08958B30910521F488B38D7F88BB0B
S113012008958C30910521F488B38B7F88BB0895A2
S11301308D30910521F488B3877F88BB08958E3074
S1130140910521F488B38F7E88BB08958F30910583
S113015021F488B38F7D88BB08958031910521F403
S113016088B38F7B88BB08958131910521F488B3CE
S11301708F7788BB08958431910521F485B38E7FF0
S113018085BB08958531910521F485B38D7F85BBA9
S113019008958631910521F485B38B7F85BB08953D
S11301A08731910521F485B3877F85BB0895883114
S11301B0910521F485B38F7E85BB0895893191051E
S11301C021F485B38F7D85BB08958A31910521F48F
S11301D085B38F7B85BB08958B31910521F485B35D
S11301E08F7785BB08958E31910521F482B38E7F7C
S11301F082BB08958F31910521F482B38D7F82BB38
S113020008958032910521F482B38B7F82BB0895D7
S11302108132910521F482B3877F82BB08958232B3
S1130220910521F482B38F7E82BB089583329105B8
S113023021F482B38F7D82BB08958432910521F429
S113024082B38F7B82BB0895859709F0E1C082B3A6
S11302508F7782BB0895009721F48BB381608BBBA9
S113026008958130910521F48BB382608BBB08958E
S11302708230910521F48BB384608BBB0895833065
S1130280910521F48BB388608BBB0895843091056C
S113029021F48BB380618BBB08958530910521F4E3
S11302A08BB380628BBB08958630910521F48BB3A8
S11302B080648BBB08958730910521F48BB38068EB
S11302C08BBB08958A30910521F488B3816088BB83
S11302D008958B30910521F488B3826088BB08951A
S11302E08C30910521F488B3846088BB08958D30E7
S11302F0910521F488B3886088BB08958E309105F8
S113030021F488B3806188BB08958F30910521F46E
S113031088B3806288BB08958031910521F488B345
S1130320806488BB08958131910521F488B3806885
S113033088BB08958431910521F485B3816085BB20
S113034008958531910521F485B3826085BB0895B4
S11303508631910521F485B3846085BB0895873186
S1130360910521F485B3886085BB08958831910592
S113037021F485B3806185BB08958931910521F409
S113038085B3806285BB08958A31910521F485B3D4
S1130390806485BB08958B31910521F485B3806811
S11303A085BB08958E31910521F482B3816082BBAF
S11303B008958F31910521F482B3826082BB089540
S11303C08032910521F482B3846082BB0895813226
S11303D0910521F482B3886082BB0895823291052D
S11303E021F482B3806182BB08958332910521F4A4
S11303F082B3806282BB08958432910521F482B372
S1130400806482BB0895859719F482B3806882BBA7
S11304100895CF93C82F80FF07C061E070E082E2A7
S113042090E00E94490006C060E070E082E290E043
S11304300E944900C1FF07C061E070E083E290E0E0
S11304400E94490006C060E070E083E290E00E94F0
S11304504900C2FF07C061E070E084E290E00E94BE
S1130460490006C060E070E084E290E00E94490028
S1130470C3FF07C061E070E085E290E00E9449009C
S113048006C060E070E085E290E00E944900CF91F0
S11304900895CF93C82F60E070E08AE190E00E9455
S11304A049008C2F0E94090261E070E08BE190E02A
S11304B00E94490089EF90E00197F1F700C0000025
S11304C060E070E08BE190E00E94490089EF90E0E9
S11304D00197F1F700C00000CF910895CF938130C8
S11304E061F480E8860FC62FCF7082958F700E94CA
S11304F049028C2F0E9449020DC0823059F480ECCD
S1130500860FC62FCF7082958F700E9449028C2F60
S11305100E944902CF91089580E00E94090287E871
S113052093E10197F1F700C0000083E00E944902C3
S113053081EE94E00197F1F700C0000083E00E948F
S113054049028DEB9AE00197F1F700C0000083E0C7
S11305500E94490282E00E94490282E00E9449020C
S113056088E00E94490280E00E9449028CE00E94D7
S1130570490280E00E94490286E00E9449020895EF
S1130580CF93DF93D82FDF70C82FC07F61E070E076
S11305908AE190E00E9449008C2F82958F700E941E
S11305A0090261E070E08BE190E00E94490089EF6C
S11305B090E00197F1F700C0000060E070E08BE18B
S11305C090E00E94490089EF90E00197F1F700C0A4
S11305D000008D2F0E94090261E070E08BE190E041
S11305E00E94490089EF90E00197F1F700C00000F4
S11305F060E070E08BE190E00E94490089EF90E0B8
S11306000197F1F700C00000DF91CF9108950F9397
S11306101F93CF93DF938C01C0E0D0E003C00E940E
S1130620C0022196F801EC0FFD1F80818111F7CFE4
S1130630DF91CF911F910F910895CF93DF93CDB7A1
S1130640DEB7E2970FB6F894DEBF0FBECDBF84B716
S1130650806884BF84B7806884BF8FE084BB12BE87
S113066087E083BF80E487B986B1806886B986B1A4
S1130670806486B90E948C0261E081E00E946E026F
S113068080E690E00E9407036AE081E00E946E0227
S113069086B1806486B93699FECF84B165B170E0C5
S11306A0762F6627682B80E090E00E947F0320E08D
S11306B030E040E950E40E940D0420E030E040E8DE
S11306C05AE30E940D049F938F937F936F938AE65E
S11306D090E09F938F938E010F5F1F4F1F930F9393
S11306E00E947A04C8010E9407038FE690E00E94EA
S11306F007030FB6F894DEBF0FBECDBFBDCFE8949D
S113070009C097FB3EF490958095709561957F4F55
S11307108F4F9F4F9923A9F0F92F96E9BB27939503
S1130720F695879577956795B795F111F8CFFAF413
S1130730BB0F11F460FF1BC06F5F7F4F8F4F9F4F44
S113074016C0882311F096E911C0772321F09EE8A2
S1130750872F762F05C0662371F096E8862F70E008
S113076060E02AF09A95660F771F881FDAF7880FE2
S11307709695879597F9089597F99F6780E870E0B3
S113078060E008959FEF80EC089500240A94161603
S1130790170618060906089500240A94121613066B
S11307A0140605060895092E0394000C11F48823F9
S11307B052F0BB0F40F4BF2B11F460FF04C06F5F15
S11307C07F4F8F4F9F4F089557FD9058440F551FEB
S11307D059F05F3F71F04795880F97FB991F61F0BF
S11307E09F3F79F087950895121613061406551F36
S11307F0F2CF4695F1DF08C0161617061806991FA2
S1130800F1CF86957105610508940895E894BB2796
S113081066277727CB0197F908950E9420040C944A
S1130820D3030E94C50338F00E94CC0320F0952323
S113083011F00C94BC030C94C20311240C9407040F
S11308400E94E40370F3959FC1F3950F50E0551F88
S1130850629FF001729FBB27F00DB11D639FAA2711
S1130860F00DB11DAA1F649F6627B00DA11D661F60
S1130870829F2227B00DA11D621F739FB00DA11D81
S1130880621F839FA00D611D221F749F3327A00D3B
S1130890611D231F849F600D211D822F762F6A2FD7
S11308A011249F5750409AF0F1F088234AF0EE0F3C
S11308B0FF1FBB1F661F771F881F91505040A9F769
S11308C09E3F510580F00C94BC030C9407045F3FD9
S11308D0E4F3983ED4F3869577956795B795F795A5
S11308E0E7959F5FC1F7FE2B880F911D969587951D
S11308F097F90895AEE0B0E0E0E8F4E00C943B072B
S11309000D891E8986E08C831A8309838FEF9FE704
S11309109E838D83AE01475E5F4F6F89788DCE01D4
S113092001960E949C04EF81F885E00FF11F10826C
S11309302E96E4E00C945707ABE0B0E0E2EAF4E072
S11309400C942D076C017B018A01FC01178216822D
S1130950838181FFCCC1CE0101963C01F6019381D4
S1130960F70193FD859193FF81917F01882309F419
S1130970BAC1853239F493FD859193FF81917F014A
S1130980853229F4B60190E00E949306E7CF912CBA
S1130990212C312CFFE1F315D8F08B3279F038F4A7
S11309A0803279F08332A1F4232D20611DC08D3271
S11309B061F0803369F4232D216016C0832D826099
S11309C0382EE32DE4603E2E2AC0F32DF8601DC0BE
S11309D037FC2DC020ED280F2A3040F08E32B9F4B8
S11309E036FC81C1232D2064322E19C036FE06C088
S11309F08AE0989E200D1124922E11C0EAE02E9ECA
S1130A00200D1124222EF32DF0623F2E08C08C36C7
S1130A1021F4832D8068382E02C0883641F4F70112
S1130A2093FD859193FF81917F018111B3CF982F1D
S1130A309F7D9554933028F40C5F1F4F9FE3998357
S1130A400DC0833631F0833771F0833509F059C016
S1130A5021C0F801808189830E5F1F4F882483940D
S1130A60912C530113C02801F2E04F0E511CF801E0
S1130A70A080B18036FE03C0692D70E002C06FEF24
S1130A807FEFC5010E9488064C018201F32DFF7798
S1130A903F2E16C0280122E0420E511CF801A0800E
S1130AA0B18036FE03C0692D70E002C06FEF7FEFA6
S1130AB0C5010E947D064C01F32DF0683F2E820192
S1130AC033FC1BC0822D90E088169906B0F4B60161
S1130AD080E290E00E9493062A94F4CFF50137FC5B
S1130AE0859137FE81915F01B60190E00E949306E3
S1130AF021102A9421E0821A91088114910471F73B
S1130B00E8C0843611F0893641F5F80137FE07C094
S1130B1060817181828193810C5F1F4F08C0608165
S1130B207181072E000C880B990B0E5F1F4FF32D5C
S1130B30FF763F2E97FF09C090958095709561953B
S1130B407F4F8F4F9F4FF0683F2E2AE030E0A30184
S1130B500E94CF06882E861845C0853731F4232D90
S1130B602F7EB22E2AE030E025C0932D997FB92E36
S1130B708F36C1F018F4883579F0B5C0803719F094
S1130B80883721F0B0C0E92FE061BE2EB4FE0DC05D
S1130B90FB2DF460BF2E09C034FE0AC0292F266045
S1130BA0B22E06C028E030E005C020E130E002C0EB
S1130BB020E132E0F801B7FE07C0608171818281D3
S1130BC093810C5F1F4F06C06081718180E090E0CB
S1130BD00E5F1F4FA3010E94CF06882E8618FB2D9F
S1130BE0FF773F2E36FE0DC0232D2E7FA22E8914B3
S1130BF058F434FE0BC032FC09C0832D8E7EA82E1F
S1130C0005C0B82CA32C03C0B82C01C0B92CA4FE79
S1130C100FC0FE01E80DF11D8081803321F49A2D6F
S1130C20997EA92E09C0A2FE06C0B394B39404C051
S1130C308A2D867809F0B394A3FC11C0A0FE06C0E7
S1130C40B21488F4280C922C9B180EC0B21460F4D1
S1130C50B60180E290E00E949306B394F7CFB214F9
S1130C6018F42B1802C0982C212CA4FE10C0B60135
S1130C7080E390E00E949306A2FE17C0A1FC03C08B
S1130C8088E790E002C088E590E0B6010CC08A2DA8
S1130C90867859F0A1FE02C08BE201C080E2A7FC75
S1130CA08DE2B60190E00E949306891438F4B601EF
S1130CB080E390E00E9493069A94F7CF8A94F3011C
S1130CC0E80DF11D8081B60190E00E949306811029
S1130CD0F5CF222009F442CEB60180E290E00E94D2
S1130CE093062A94F6CFF6018681978102C08FEF8E
S1130CF09FEF2B96E2E10C944907FC0105906150AB
S1130D0070400110D8F7809590958E0F9F1F08951D
S1130D10FC016150704001900110D8F780959095C6
S1130D208E0F9F1F08950F931F93CF93DF93FB01A3
S1130D30238121FD03C08FEF9FEF2CC022FF16C03B
S1130D4046815781248135814217530744F4A08199
S1130D50B1819D012F5F3F4F318320838C93268186
S1130D6037812F5F3F4F3783268314C08B01EC01FB
S1130D70FB010084F185E02D0995892BE1F6D8016A
S1130D8016968D919C911797019617969C938E9326
S1130D901697CE01DF91CF911F910F910895FA011B
S1130DA0AA27283051F1203181F1E8946F936E7FA6
S1130DB06E5F7F4F8F4F9F4FAF4FB1E03ED0B4E097
S1130DC03CD0670F781F891F9A1FA11D680F791FD8
S1130DD08A1F911DA11D6A0F711D811D911DA11DE9
S1130DE020D009F468943F912AE0269F11243019F9
S1130DF0305D3193DEF6CF010895462F4770405D94
S1130E004193B3E00FD0C9F7F6CF462F4F70405D42
S1130E104A3318F0495D31FD4052419302D0A9F79D
S1130E20EACFB4E0A6959795879577956795BA9597
S1130E30C9F700976105710508959B01AC010A2E5D
S1130E4006945795479537952795BA95C9F7620F34
S1130E50731F841F951FA01D08952F923F924F92D8
S1130E605F926F927F928F929F92AF92BF92CF9236
S1130E70DF92EF92FF920F931F93CF93DF93CDB73F
S1130E80DEB7CA1BDB0B0FB6F894DEBF0FBECDBFB7
S1130E9009942A88398848885F846E847D848C8488
S1130EA09B84AA84B984C884DF80EE80FD800C8191
S1130EB01B81AA81B981CE0FD11D0FB6F894DEBF74
S10F0EC00FBECDBFED010895F894FFCFE4
S1130ECC566F6C746167653A2000252E32660020DB
S1050EDC5600BA
S9030000FC
