:100000000C942A000C9482000C943F000C943F0046
:100010000C943F000C943F000C943F000C943F0064
:100020000C943F000C943F000C943F000C943F0054
:100030000C943F000C943F000C943F000C943F0044
:100040000C9441000C943F000C943F000C943F0032
:100050000C943F0011241FBECFE5D8E0DEBFCDBF1A
:1000600010E0A0E6B0E0EEE9F4E002C005900D92E9
:10007000A236B107D9F70E9491000C944D020C945E
:1000800000001F920F920FB60F9211242F933F93EF
:100090004F935F936F937F938F939F93AF93BF9390
:1000A000CF93DF93EF93FF93C4B1D5B1BE01DD0FC2
:1000B000880B990B0E94540120E030E84BEB54E48C
:1000C0000E94E00120E030E040E256E40E94AA00F5
:1000D0000E941C017093610060936000C5BBFF919A
:1000E000EF91DF91CF91BF91AF919F918F917F91D0
:1000F0006F915F914F913F912F910F900FBE0F9095
:100100001F9018951F920F920FB60F9211248F9384
:1001100086B1806486B98F910F900FBE0F901F90AB
:10012000189581E087BB8FEF84BB17B888E886B944
:100130008BB780648BBF85B7836085BF78948091CF
:1001400060009091610045971CF081E088BBF7CF7B
:1001500018BAF5CF0E94BE000C94A6010E949F0120
:1001600058F00E94980140F029F45F3F29F00C9468
:100170008F0151110C94DA010C9495010E94B70182
:1001800068F39923B1F3552391F3951B550BBB27C6
:10019000AA2762177307840738F09F5F5F4F220F0B
:1001A000331F441FAA1FA9F335D00E2E3AF0E0E802
:1001B00032D091505040E695001CCAF72BD0FE2F4C
:1001C00029D0660F771F881FBB1F261737074807E0
:1001D000AB07B0E809F0BB0B802DBF01FF27935898
:1001E0005F4F3AF09E3F510578F00C948F010C94CC
:1001F000DA015F3FE4F3983ED4F3869577956795EF
:10020000B795F7959F5FC9F7880F911D96958795CC
:1002100097F90895E1E0660F771F881FBB1F6217EB
:1002200073078407BA0720F0621B730B840BBA0BA9
:10023000EE1F88F7E09508950E9423016894B1119C
:100240000C94DA0108950E94BF0188F09F5798F03E
:10025000B92F9927B751B0F0E1F0660F771F881FCB
:10026000991F1AF0BA95C9F714C0B13091F00E94E5
:10027000D901B1E008950C94D901672F782F882710
:10028000B85F39F0B93FCCF3869577956795B3950C
:10029000D9F73EF490958095709561957F4F8F4F7B
:1002A0009F4F0895E89409C097FB3EF49095809580
:1002B000709561957F4F8F4F9F4F9923A9F0F92F2C
:1002C00096E9BB279395F695879577956795B795AA
:1002D000F111F8CFFAF4BB0F11F460FF1BC06F5F90
:1002E0007F4F8F4F9F4F16C0882311F096E911C0A2
:1002F000772321F09EE8872F762F05C0662371F0C3
:1003000096E8862F70E060E02AF09A95660F771FD6
:10031000881FDAF7880F9695879597F9089597F9CA
:100320009F6780E870E060E008959FEF80EC08959B
:1003300000240A94161617061806090608950024C4
:100340000A9412161306140605060895092E03943E
:10035000000C11F4882352F0BB0F40F4BF2B11F4B2
:1003600060FF04C06F5F7F4F8F4F9F4F089557FD11
:100370009058440F551F59F05F3F71F04795880F13
:1003800097FB991F61F09F3F79F0879508951216AA
:1003900013061406551FF2CF4695F1DF08C0161656
:1003A00017061806991FF1CF869571056105089407
:1003B0000895E894BB2766277727CB0197F908951E
:1003C0000E94F3010C94A6010E94980138F00E944B
:1003D0009F0120F0952311F00C948F010C9495014E
:1003E00011240C94DA010E94B70170F3959FC1F3B8
:1003F000950F50E0551F629FF001729FBB27F00DD3
:10040000B11D639FAA27F00DB11DAA1F649F662727
:10041000B00DA11D661F829F2227B00DA11D621F76
:10042000739FB00DA11D621F839FA00D611D221F30
:10043000749F3327A00D611D231F849F600D211D14
:10044000822F762F6A2F11249F5750409AF0F1F097
:1004500088234AF0EE0FFF1FBB1F661F771F881F00
:1004600091505040A9F79E3F510580F00C948F01A8
:100470000C94DA015F3FE4F3983ED4F386957795C8
:100480006795B795F795E7959F5FC1F7FE2B880FA6
:0E049000911D9695879597F90895F894FFCFE2
:02049E00140048
:00000001FF
